{
  "contractName": "OfflineTransaction",
  "abi": [
    {
      "inputs": [],
      "stateMutability": "nonpayable",
      "type": "constructor"
    },
    {
      "anonymous": false,
      "inputs": [
        {
          "indexed": true,
          "internalType": "bytes32",
          "name": "txId",
          "type": "bytes32"
        },
        {
          "indexed": true,
          "internalType": "address",
          "name": "payer",
          "type": "address"
        },
        {
          "indexed": true,
          "internalType": "address",
          "name": "payee",
          "type": "address"
        },
        {
          "indexed": false,
          "internalType": "uint256",
          "name": "amount",
          "type": "uint256"
        }
      ],
      "name": "TransactionConfirmed",
      "type": "event"
    },
    {
      "anonymous": false,
      "inputs": [
        {
          "indexed": true,
          "internalType": "bytes32",
          "name": "txId",
          "type": "bytes32"
        },
        {
          "indexed": true,
          "internalType": "address",
          "name": "payer",
          "type": "address"
        },
        {
          "indexed": true,
          "internalType": "address",
          "name": "payee",
          "type": "address"
        },
        {
          "indexed": false,
          "internalType": "uint256",
          "name": "amount",
          "type": "uint256"
        }
      ],
      "name": "TransactionSubmitted",
      "type": "event"
    },
    {
      "inputs": [],
      "name": "owner",
      "outputs": [
        {
          "internalType": "address",
          "name": "",
          "type": "address"
        }
      ],
      "stateMutability": "view",
      "type": "function",
      "constant": true
    },
    {
      "inputs": [
        {
          "internalType": "bytes32",
          "name": "",
          "type": "bytes32"
        }
      ],
      "name": "transactions",
      "outputs": [
        {
          "internalType": "address",
          "name": "payer",
          "type": "address"
        },
        {
          "internalType": "address",
          "name": "payee",
          "type": "address"
        },
        {
          "internalType": "uint256",
          "name": "amount",
          "type": "uint256"
        },
        {
          "internalType": "bool",
          "name": "confirmed",
          "type": "bool"
        }
      ],
      "stateMutability": "view",
      "type": "function",
      "constant": true
    },
    {
      "inputs": [
        {
          "internalType": "address payable",
          "name": "_payee",
          "type": "address"
        }
      ],
      "name": "sendEther",
      "outputs": [],
      "stateMutability": "payable",
      "type": "function",
      "payable": true
    },
    {
      "inputs": [
        {
          "internalType": "bytes32",
          "name": "_txId",
          "type": "bytes32"
        }
      ],
      "name": "confirmTransaction",
      "outputs": [],
      "stateMutability": "nonpayable",
      "type": "function"
    },
    {
      "inputs": [
        {
          "internalType": "bytes32",
          "name": "_txId",
          "type": "bytes32"
        }
      ],
      "name": "getTransaction",
      "outputs": [
        {
          "components": [
            {
              "internalType": "address",
              "name": "payer",
              "type": "address"
            },
            {
              "internalType": "address",
              "name": "payee",
              "type": "address"
            },
            {
              "internalType": "uint256",
              "name": "amount",
              "type": "uint256"
            },
            {
              "internalType": "bool",
              "name": "confirmed",
              "type": "bool"
            }
          ],
          "internalType": "struct OfflineTransaction.Transaction",
          "name": "",
          "type": "tuple"
        }
      ],
      "stateMutability": "view",
      "type": "function",
      "constant": true
    }
  ],
  "bytecode": "0x608060405234801561001057600080fd5b5033600160006101000a81548173ffffffffffffffffffffffffffffffffffffffff021916908373ffffffffffffffffffffffffffffffffffffffff1602179055506109ce806100616000396000f3fe60806040526004361061004a5760003560e01c806348c981e21461004f5780634aae13ca1461006b578063642f2eaf146100a857806379716e43146100e85780638da5cb5b14610111575b600080fd5b61006960048036038101906100649190610646565b61013c565b005b34801561007757600080fd5b50610092600480360381019061008d91906106a9565b61022f565b60405161009f9190610780565b60405180910390f35b3480156100b457600080fd5b506100cf60048036038101906100ca91906106a9565b61032c565b6040516100df94939291906107c8565b60405180910390f35b3480156100f457600080fd5b5061010f600480360381019061010a91906106a9565b6103a9565b005b34801561011d57600080fd5b50610126610567565b604051610133919061080d565b60405180910390f35b6000341161017f576040517f08c379a0000000000000000000000000000000000000000000000000000000008152600401610176906108ab565b60405180910390fd5b60008173ffffffffffffffffffffffffffffffffffffffff16346040516101a5906108fc565b60006040518083038185875af1925050503d80600081146101e2576040519150601f19603f3d011682016040523d82523d6000602084013e6101e7565b606091505b505090508061022b576040517f08c379a00000000000000000000000000000000000000000000000000000000081526004016102229061095d565b60405180910390fd5b5050565b61023761058d565b6000808381526020019081526020016000206040518060800160405290816000820160009054906101000a900473ffffffffffffffffffffffffffffffffffffffff1673ffffffffffffffffffffffffffffffffffffffff1673ffffffffffffffffffffffffffffffffffffffff1681526020016001820160009054906101000a900473ffffffffffffffffffffffffffffffffffffffff1673ffffffffffffffffffffffffffffffffffffffff1673ffffffffffffffffffffffffffffffffffffffff168152602001600282015481526020016003820160009054906101000a900460ff1615151515815250509050919050565b60006020528060005260406000206000915090508060000160009054906101000a900473ffffffffffffffffffffffffffffffffffffffff16908060010160009054906101000a900473ffffffffffffffffffffffffffffffffffffffff16908060020154908060030160009054906101000a900460ff16905084565b6000806000838152602001908152602001600020905060008160010160009054906101000a900473ffffffffffffffffffffffffffffffffffffffff1673ffffffffffffffffffffffffffffffffffffffff16826002015460405161040d906108fc565b60006040518083038185875af1925050503d806000811461044a576040519150601f19603f3d011682016040523d82523d6000602084013e61044f565b606091505b5050905080610493576040517f08c379a000000000000000000000000000000000000000000000000000000000815260040161048a9061095d565b60405180910390fd5b60018260030160006101000a81548160ff0219169083151502179055508160010160009054906101000a900473ffffffffffffffffffffffffffffffffffffffff1673ffffffffffffffffffffffffffffffffffffffff168260000160009054906101000a900473ffffffffffffffffffffffffffffffffffffffff1673ffffffffffffffffffffffffffffffffffffffff16847f063834627c33549017eb8f06349a0c6235f43e1759fbace87a0c38834b965ce9856002015460405161055a919061097d565b60405180910390a4505050565b600160009054906101000a900473ffffffffffffffffffffffffffffffffffffffff1681565b6040518060800160405280600073ffffffffffffffffffffffffffffffffffffffff168152602001600073ffffffffffffffffffffffffffffffffffffffff168152602001600081526020016000151581525090565b600080fd5b600073ffffffffffffffffffffffffffffffffffffffff82169050919050565b6000610613826105e8565b9050919050565b61062381610608565b811461062e57600080fd5b50565b6000813590506106408161061a565b92915050565b60006020828403121561065c5761065b6105e3565b5b600061066a84828501610631565b91505092915050565b6000819050919050565b61068681610673565b811461069157600080fd5b50565b6000813590506106a38161067d565b92915050565b6000602082840312156106bf576106be6105e3565b5b60006106cd84828501610694565b91505092915050565b60006106e1826105e8565b9050919050565b6106f1816106d6565b82525050565b6000819050919050565b61070a816106f7565b82525050565b60008115159050919050565b61072581610710565b82525050565b60808201600082015161074160008501826106e8565b50602082015161075460208501826106e8565b5060408201516107676040850182610701565b50606082015161077a606085018261071c565b50505050565b6000608082019050610795600083018461072b565b92915050565b6107a4816106d6565b82525050565b6107b3816106f7565b82525050565b6107c281610710565b82525050565b60006080820190506107dd600083018761079b565b6107ea602083018661079b565b6107f760408301856107aa565b61080460608301846107b9565b95945050505050565b6000602082019050610822600083018461079b565b92915050565b600082825260208201905092915050565b7f5472616e73616374696f6e206d757374206861766520612076616c696420616d60008201527f6f756e7400000000000000000000000000000000000000000000000000000000602082015250565b6000610895602483610828565b91506108a082610839565b604082019050919050565b600060208201905081810360008301526108c481610888565b9050919050565b600081905092915050565b50565b60006108e66000836108cb565b91506108f1826108d6565b600082019050919050565b6000610907826108d9565b9150819050919050565b7f455448207472616e73666572206661696c656400000000000000000000000000600082015250565b6000610947601383610828565b915061095282610911565b602082019050919050565b600060208201905081810360008301526109768161093a565b9050919050565b600060208201905061099260008301846107aa565b9291505056fea2646970667358221220db0203c5c9ae7a1b8a00d0ef77954230cbb94abb6b458714f25f41959d44cd7f64736f6c63430008110033",
  "immutableReferences": {},
  "source": "// SPDX-License-Identifier: MIT\r\npragma solidity ^0.8.17;\r\n\r\ncontract OfflineTransaction {\r\n    struct Transaction {\r\n        address payer;\r\n        address payee;\r\n        uint256 amount;\r\n        bool confirmed;\r\n    }\r\n\r\n    mapping(bytes32 => Transaction) public transactions;\r\n    address public owner;\r\n\r\n    event TransactionSubmitted(bytes32 indexed txId, address indexed payer, address indexed payee, uint256 amount);\r\n    event TransactionConfirmed(bytes32 indexed txId, address indexed payer, address indexed payee, uint256 amount);\r\n\r\n    modifier onlyOwner() {\r\n        require(msg.sender == owner, \"Only owner can confirm transactions\");\r\n        _;\r\n    }\r\n\r\n    constructor() {\r\n        owner = msg.sender;\r\n    }\r\n\r\n    function sendEther(address payable _payee) public payable {\r\n        require(msg.value > 0, \"Transaction must have a valid amount\");\r\n\r\n        // Transfer ETH directly to the payee\r\n        (bool success, ) = _payee.call{value: msg.value}(\"\");\r\n        require(success, \"ETH transfer failed\");\r\n\r\n       \r\n    }\r\n\r\n    function confirmTransaction(bytes32 _txId) public  {\r\n        Transaction storage txData = transactions[_txId];\r\n\r\n       // require(txData.amount > 0, \"Transaction not found\");\r\n      //  require(!txData.confirmed, \"Transaction already confirmed\");\r\n\r\n        // Send ETH from contract to payee\r\n        (bool success, ) = payable(txData.payee).call{value: txData.amount}(\"\");\r\n        require(success, \"ETH transfer failed\");\r\n\r\n        txData.confirmed = true;\r\n\r\n        emit TransactionConfirmed(_txId, txData.payer, txData.payee, txData.amount);\r\n    }\r\n\r\n    function getTransaction(bytes32 _txId) public view returns (Transaction memory) {\r\n        return transactions[_txId];\r\n    }\r\n}\r\n",
  "sourcePath": "D:\\Offline payment\\OfflinePayment\\blockchain\\OfflineTransaction\\contracts\\OfflineTransaction.sol",
  "compiler": {
    "name": "solc",
    "version": "0.8.17+commit.8df45f5f.Emscripten.clang"
  },
  "schemaVersion": "3.4.16",
  "updatedAt": "2025-03-31T07:20:48.048Z",
  "networkType": "ethereum",
  "devdoc": {
    "kind": "dev",
    "methods": {},
    "version": 1
  },
  "userdoc": {
    "kind": "user",
    "methods": {},
    "version": 1
  }
}